:0300000002088A69
:0C088A00787FE4F6D8FD758107020800B5
:10080000E4F59075903F12086675900612086675BB
:10081000905B12086675904F120866759066120814
:100820006675906D12086675907D12086675900762
:1008300012086675907F12086675906F12086675CB
:10084000907712086675907C1208667590391208C8
:100850006675905E120866759079120866759071DB
:0608600012086602080305
:040866007F0A7E0087
:10086A00E4FDFCD3ED9FEC9E5015E4FBFA0BBB00B4
:0F087A00010ABA27F8BB11F50DBD00010C80E48F
:01088900224C
:00000001FF
