:03000000020C40AF
:0C0C4000787FE4F6D8FD758107020BF800
:100BF800E4F5A0F5B0209005120BBD800E209205FB
:100C08001209DF8006209408120ACEE4F5A080E5D8
:100C1800209608120800E4F5B080DAE4F5A0F5B0F3
:020C280080D377
:100BBD0075A055900000AF82AE83E4FCFD7B407ABA
:100BCD009CF9F8C3120C2A4003A380EA75A0AAE48D
:100BDD00F583F582AF82AE83E4FCFD7B407A9CF910
:0A0BED00F8C3120C2A4003A380EAAB
:010BF70022DB
:1009DF0075A001900000AF82AE83E4FCFD7B407AEE
:1009EF009CF9F8C3120C2A4003A380EA75A002E415
:1009FF00F583F582AF82AE83E4FCFD7B407A9CF9F0
:100A0F00F8C3120C2A4003A380EA75A004E4F5830F
:100A1F00F582AF82AE83E4FCFD7B407A9CF9F8C38C
:100A2F00120C2A4003A380EA75A008E4F583F5822F
:100A3F00AF82AE83E4FCFD7B407A9CF9F8C3120CC5
:100A4F002A4003A380EA75A010E4F583F582AF82F4
:100A5F00AE83E4FCFD7B407A9CF9F8C3120C2A406C
:100A6F0003A380EA75A020E4F583F582AF82AE83FD
:100A7F00E4FCFD7B407A9CF9F8C3120C2A4003A3D7
:100A8F0080EA75A040E4F583F582AF82AE83E4FC83
:100A9F00FD7B407A9CF9F8C3120C2A4003A380EA2D
:100AAF0075A080E4F583F582AF82AE83E4FCFD7B15
:0E0ABF00407A9CF9F8C3120C2A4003A380EA87
:010ACD002206
:100ACE0075A080900000AF82AE83E4FCFD7B407A7F
:100ADE009CF9F8C3120C2A4003A380EA75A040E4E7
:100AEE00F583F582AF82AE83E4FCFD7B407A9CF900
:100AFE00F8C3120C2A4003A380EA75A020E4F58304
:100B0E00F582AF82AE83E4FCFD7B407A9CF9F8C39C
:100B1E00120C2A4003A380EA75A010E4F583F58237
:100B2E00AF82AE83E4FCFD7B407A9CF9F8C3120CD5
:100B3E002A4003A380EA75A008E4F583F582AF820C
:100B4E00AE83E4FCFD7B407A9CF9F8C3120C2A407C
:100B5E0003A380EA75A004E4F583F582AF82AE8329
:100B6E00E4FCFD7B407A9CF9F8C3120C2A4003A3E7
:100B7E0080EA75A002E4F583F582AF82AE83E4FCD1
:100B8E00FD7B407A9CF9F8C3120C2A4003A380EA3D
:100B9E0075A001E4F583F582AF82AE83E4FCFD7BA4
:0E0BAE00407A9CF9F8C3120C2A4003A380EA97
:010BBC002216
:1008000075B03F900000AF82AE83E4FCFD7B407A80
:100810009CF9F8C3120C2A4003A380EA75B006E4E1
:10082000F583F582AF82AE83E4FCFD7B407A9CF9D0
:10083000F8C3120C2A4003A380EA75B05BE4F58389
:10084000F582AF82AE83E4FCFD7B407A9CF9F8C36D
:10085000120C2A4003A380EA75B04FE4F583F582B9
:10086000AF82AE83E4FCFD7B407A9CF9F8C3120CA6
:100870002A4003A380EA75B066E4F583F582AF826F
:10088000AE83E4FCFD7B407A9CF9F8C3120C2A404D
:1008900003A380EA75B06DE4F583F582AF82AE8381
:1008A000E4FCFD7B407A9CF9F8C3120C2A4003A3B8
:1008B00080EA75B07DE4F583F582AF82AE83E4FC17
:1008C000FD7B407A9CF9F8C3120C2A4003A380EA0E
:1008D00075B007E4F583F582AF82AE83E4FCFD7B5F
:1008E000407A9CF9F8C3120C2A4003A380EA75B041
:1008F0007FE4F583F582AF82AE83E4FCFD7B407A32
:100900009CF9F8C3120C2A4003A380EA75B06FE487
:10091000F583F582AF82AE83E4FCFD7B407A9CF9DF
:10092000F8C3120C2A4003A380EA75B077E4F5837C
:10093000F582AF82AE83E4FCFD7B407A9CF9F8C37C
:10094000120C2A4003A380EA75B07CE4F583F5829B
:10095000AF82AE83E4FCFD7B407A9CF9F8C3120CB5
:100960002A4003A380EA75B039E4F583F582AF82AB
:10097000AE83E4FCFD7B407A9CF9F8C3120C2A405C
:1009800003A380EA75B05EE4F583F582AF82AE839F
:10099000E4FCFD7B407A9CF9F8C3120C2A4003A3C7
:1009A00080EA75B07FE4F583F582AF82AE83E4FC24
:1009B000FD7B407A9CF9F8C3120C2A4003A380EA1D
:1009C00075B071E4F583F582AF82AE83E4FCFD7B04
:0E09D000407A9CF9F8C3120C2A4003A380EA77
:0109DE0022F6
:100C2A00EB9FF5F0EA9E42F0E99D42F0EC6480C841
:060C3A0064809845F022E1
:00000001FF
