:0300000002088A69
:0C088A00787FE4F6D8FD758107020800B5
:10080000E4F5A075A0C012086675A0F91208667517
:10081000A0A412086675A0B012086675A099120807
:100820006675A09212086675A08212086675A0F817
:1008300012086675A08012086675A0901208667589
:10084000A08812086675A08312086675A0C61208F3
:100850006675A0A112086675A08612086675A08E3E
:0608600012086602080305
:040866007F0A7E0087
:10086A00E4FDFCD3ED9FEC9E5015E4FBFA0BBB00B4
:0F087A00010ABA27F8BB11F50DBD00010C80E48F
:01088900224C
:00000001FF
