:03000000020C41AE
:0C0C4100787FE4F6D8FD758107020BF8FF
:100BF800E4F5A08021209005120BBD800E209205FF
:100C08001209DF8006209408120ACEE4F5A080E5D8
:100C180020960812080075B0FF80DAE4F5A075B0D8
:030C2800FF80D278
:100BBD0075A055900000AF82AE83E4FCFD7B407ABA
:100BCD009CF9F8C3120C2B4003A380EA75A0AAE48C
:100BDD00F583F582AF82AE83E4FCFD7B407A9CF910
:0A0BED00F8C3120C2B4003A380EAAA
:010BF70022DB
:1009DF0075A001900000AF82AE83E4FCFD7B407AEE
:1009EF009CF9F8C3120C2B4003A380EA75A002E414
:1009FF00F583F582AF82AE83E4FCFD7B407A9CF9F0
:100A0F00F8C3120C2B4003A380EA75A004E4F5830E
:100A1F00F582AF82AE83E4FCFD7B407A9CF9F8C38C
:100A2F00120C2B4003A380EA75A008E4F583F5822E
:100A3F00AF82AE83E4FCFD7B407A9CF9F8C3120CC5
:100A4F002B4003A380EA75A010E4F583F582AF82F3
:100A5F00AE83E4FCFD7B407A9CF9F8C3120C2B406B
:100A6F0003A380EA75A020E4F583F582AF82AE83FD
:100A7F00E4FCFD7B407A9CF9F8C3120C2B4003A3D6
:100A8F0080EA75A040E4F583F582AF82AE83E4FC83
:100A9F00FD7B407A9CF9F8C3120C2B4003A380EA2C
:100AAF0075A080E4F583F582AF82AE83E4FCFD7B15
:0E0ABF00407A9CF9F8C3120C2B4003A380EA86
:010ACD002206
:100ACE0075A080900000AF82AE83E4FCFD7B407A7F
:100ADE009CF9F8C3120C2B4003A380EA75A040E4E6
:100AEE00F583F582AF82AE83E4FCFD7B407A9CF900
:100AFE00F8C3120C2B4003A380EA75A020E4F58303
:100B0E00F582AF82AE83E4FCFD7B407A9CF9F8C39C
:100B1E00120C2B4003A380EA75A010E4F583F58236
:100B2E00AF82AE83E4FCFD7B407A9CF9F8C3120CD5
:100B3E002B4003A380EA75A008E4F583F582AF820B
:100B4E00AE83E4FCFD7B407A9CF9F8C3120C2B407B
:100B5E0003A380EA75A004E4F583F582AF82AE8329
:100B6E00E4FCFD7B407A9CF9F8C3120C2B4003A3E6
:100B7E0080EA75A002E4F583F582AF82AE83E4FCD1
:100B8E00FD7B407A9CF9F8C3120C2B4003A380EA3C
:100B9E0075A001E4F583F582AF82AE83E4FCFD7BA4
:0E0BAE00407A9CF9F8C3120C2B4003A380EA96
:010BBC002216
:1008000075B0C0900000AF82AE83E4FCFD7B407AFF
:100810009CF9F8C3120C2B4003A380EA75B0F9E4ED
:10082000F583F582AF82AE83E4FCFD7B407A9CF9D0
:10083000F8C3120C2B4003A380EA75B0A4E4F5833F
:10084000F582AF82AE83E4FCFD7B407A9CF9F8C36D
:10085000120C2B4003A380EA75B0B0E4F583F58257
:10086000AF82AE83E4FCFD7B407A9CF9F8C3120CA6
:100870002B4003A380EA75B099E4F583F582AF823B
:10088000AE83E4FCFD7B407A9CF9F8C3120C2B404C
:1008900003A380EA75B092E4F583F582AF82AE835C
:1008A000E4FCFD7B407A9CF9F8C3120C2B4003A3B7
:1008B00080EA75B082E4F583F582AF82AE83E4FC12
:1008C000FD7B407A9CF9F8C3120C2B4003A380EA0D
:1008D00075B0F8E4F583F582AF82AE83E4FCFD7B6E
:1008E000407A9CF9F8C3120C2B4003A380EA75B040
:1008F00080E4F583F582AF82AE83E4FCFD7B407A31
:100900009CF9F8C3120C2B4003A380EA75B090E465
:10091000F583F582AF82AE83E4FCFD7B407A9CF9DF
:10092000F8C3120C2B4003A380EA75B088E4F5836A
:10093000F582AF82AE83E4FCFD7B407A9CF9F8C37C
:10094000120C2B4003A380EA75B083E4F583F58293
:10095000AF82AE83E4FCFD7B407A9CF9F8C3120CB5
:100960002B4003A380EA75B0C6E4F583F582AF821D
:10097000AE83E4FCFD7B407A9CF9F8C3120C2B405B
:1009800003A380EA75B0A1E4F583F582AF82AE835C
:10099000E4FCFD7B407A9CF9F8C3120C2B4003A3C6
:1009A00080EA75B086E4F583F582AF82AE83E4FC1D
:1009B000FD7B407A9CF9F8C3120C2B4003A380EA1C
:1009C00075B08EE4F583F582AF82AE83E4FCFD7BE7
:0E09D000407A9CF9F8C3120C2B4003A380EA76
:0109DE0022F6
:100C2B00EB9FF5F0EA9E42F0E99D42F0EC6480C840
:060C3B0064809845F022E0
:00000001FF
