:030000000209B53D
:0C09B500787FE4F6D8FD75811D0208F67D
:1009A10000C000F900A400B000990092008200F894
:0409B1000080009032
:1008F60078087C007D007BFF7A0979A17E007F1451
:100906001208D0E4F51CF51D20A230C3E51D94099C
:10091600E51C64809480500D12097D051DE51D704F
:1009260049051C8045E51D6409451C703D7F64FE34
:10093600120981751C00751D09802F20A62CD3E590
:100946001D9400E51C64809480400D12097DE51D10
:10095600151D7016151C8012E51DB4FF0DE51CB49F
:10096600FF0812097DE4F51CF51DE51D25E02408A8
:07097600F808E6F5908091FE
:04097D007F647E0015
:10098100E4FDFCC3ED9FEC9E5015E4FBFA0BBB00AC
:0F099100010ABA03F8BBE8F50DBD00010C80E4C4
:0109A0002234
:10080000E709F608DFFA8046E709F208DFFA803EDA
:1008100088828C83E709F0A3DFFA8032E309F608C7
:10082000DFFA8078E309F208DFFA807088828C832F
:10083000E309F0A3DFFA806489828A83E0A3F608E3
:10084000DFFA805889828A83E0A3F208DFFA804CBD
:1008500080D280FA80C680D4806980F28033801094
:1008600080A680EA809A80A880DA80E280CA8033FD
:1008700089828A83ECFAE493A3C8C582C8CCC58375
:10088000CCF0A3C8C582C8CCC583CCDFE9DEE78045
:100890000D89828A83E493A3F608DFF9ECFAA9F0C4
:1008A000EDFB2289828A83ECFAE0A3C8C582C8CC1A
:1008B000C583CCF0A3C8C582C8CCC583CCDFEADE33
:1008C000E880DB89828A83E493A3F208DFF980CC95
:1008D00088F0EF60010E4E60C388F0ED2402B4048E
:1008E0000050B9F582EB2402B4040050AF23234535
:0608F00082239008507302
:00000001FF
