:03000000020A579A
:0C0A5700787FE4F6D8FD75811F0209814C
:100A430000C000F900A400B000990092008200F8F1
:040A5300008000908F
:1009810078087C007D007BFF7A0A79437E007F1422
:100991001208D0E4F51CF51DC2B6C2B7D3E51D940B
:1009A10063E51C6480948050F3E4F51EF51FC3E5F4
:1009B1001C64809480404DD3E51D9463E51C6480E4
:1009C10094805040AE1CAF1D7C007D0A1208F6EDEC
:1009D10025E02408F808E6F590D2B6C2B77F017E7B
:1009E10000120A23AE1CAF1D7C007D0A1208F6EF2F
:1009F10025E02408F808E6F590C2B6D2B77F017E5B
:100A010000120A23051FE51F7002051EC39432E57B
:100A11001E648094804097051DE51D7002051C022F
:020A2100099D2D
:100A2300E4FDFCC3ED9FEC9E5015E4FBFA0BBB0009
:0F0A3300010ABA01F8BB2CF50DBD00010C80E4DF
:010A42002291
:10080000E709F608DFFA8046E709F208DFFA803EDA
:1008100088828C83E709F0A3DFFA8032E309F608C7
:10082000DFFA8078E309F208DFFA807088828C832F
:10083000E309F0A3DFFA806489828A83E0A3F608E3
:10084000DFFA805889828A83E0A3F208DFFA804CBD
:1008500080D280FA80C680D4806980F28033801094
:1008600080A680EA809A80A880DA80E280CA8033FD
:1008700089828A83ECFAE493A3C8C582C8CCC58375
:10088000CCF0A3C8C582C8CCC583CCDFE9DEE78045
:100890000D89828A83E493A3F608DFF9ECFAA9F0C4
:1008A000EDFB2289828A83ECFAE0A3C8C582C8CC1A
:1008B000C583CCF0A3C8C582C8CCC583CCDFEADE33
:1008C000E880DB89828A83E493A3F208DFF980CC95
:1008D00088F0EF60010E4E60C388F0ED2402B4048E
:1008E0000050B9F582EB2402B4040050AF23234535
:0608F00082239008507302
:1008F600C2D5EC30E709B2D5E4C39DFDE49CFCEE1D
:1009060030E715B2D5E4C39FFFE49EFE12092CC35F
:10091600E49DFDE49CFC800312092C30D507C3E45A
:060926009FFFE49EFE228B
:10092C00BC000BBE0029EF8DF084FFADF022E4CCAF
:10093C00F875F008EF2FFFEE33FEEC33FCEE9DEC78
:10094C00984005FCEE9DFE0FD5F0E9E4CEFD22EDBE
:10095C00F8F5F0EE8420D21CFEADF075F008EF2F08
:10096C00FFED33FD4007985006D5F0F222C398FDF9
:05097C000FD5F0EA2296
:00000001FF
