:030000000208FFF4
:0C08FF00787FE4F6D8FD7581090208003E
:10080000E4F508F509F5A0209030C3E5099409E561
:100810000864809480500D1208DB0509E5097049D1
:1008200005088045E50964094508703D7F64FE12AE
:1008300008DF750800750909802F20912CD3E50980
:100840009400E50864809480400D1208DBE50915EA
:1008500009701615088012E509B4FF0DE508B4FF0C
:10086000081208DBE4F508F509E508709AE509B413
:100870000A00509390087BF8282873020899020810
:100880009E0208A30208A80208AD0208B20208B737
:100890000208BC0208C10208CE75A03F802675A0E0
:1008A00006802175A05B801C75A04F801775A0661F
:1008B000801275A06D800D75A07D800875A00780E1
:1008C0000375A07F7F047E001208DF02080775A071
:0B08D0006F7F047E001208DF020807A3
:0408DB007F647E00B8
:1008DF00E4FDFCC3ED9FEC9E5015E4FBFA0BBB004F
:0F08EF00010ABA03F8BBE8F50DBD00010C80E467
:0108FE0022D7
:00000001FF
