:03000000020AD021
:0C0AD000787FE4F6D8FD75812102094B07
:100ABC0000C000F900A400B000990092008200F878
:040ACC000080009016
:10094B0078087C007D007BFF7A0A79BC7E007F14DF
:10095B001208D0E4F59030B003020A5520B103021F
:10096B000A55751E00751F02C3E51F94FFE51E9403
:10097B00FF50E3E51F6402451E7033F520F521128D
:10098B000A81850990D2B2C2B3C2B4120A92850908
:10099B0090C2B2D2B3C2B4120A920521E521700201
:1009AB000520C39432E520940040D4020A4AC3E5E3
:1009BB001F9402E51E94004003020A4A751C007541
:1009CB001D3BC3E51D943DE51C94005072C3E51D12
:1009DB0094FFE51C94FF5067E4F520F521120A8182
:1009EB00AE1CAF1D7C007D0A1208F6ED25E0240835
:1009FB00F808E6F590D2B2C2B3C2B4120A92AE1C9A
:100A0B00AF1D7C007D0A1208F6EF25E02408F808DC
:100A1B00E6F590C2B2D2B3C2B4120A920521E52117
:100A2B0070020520C39419E520940040B07F057E29
:100A3B0000120A96E51D151D7002151C0209CDE565
:100A4B001F151F7002151E02097330B103020961D5
:100A5B0020B003020961850D90120A8C850990D292
:100A6B00B2C2B3C2B4120A92850990C2B2D2B3C257
:060A7B00B4120A9280DAB9
:100A8100E51F25E02408F808E6F590C2B2C2B3D20A
:050A9100B47F017E00AE
:100A9600E4FDFCC3ED9FEE6480F8EC64809850158D
:100AA600E4FBFA0BBB00010ABA03F8BBE8F50DBD7F
:050AB60000010C80DED0
:010ABB002218
:10080000E709F608DFFA8046E709F208DFFA803EDA
:1008100088828C83E709F0A3DFFA8032E309F608C7
:10082000DFFA8078E309F208DFFA807088828C832F
:10083000E309F0A3DFFA806489828A83E0A3F608E3
:10084000DFFA805889828A83E0A3F208DFFA804CBD
:1008500080D280FA80C680D4806980F28033801094
:1008600080A680EA809A80A880DA80E280CA8033FD
:1008700089828A83ECFAE493A3C8C582C8CCC58375
:10088000CCF0A3C8C582C8CCC583CCDFE9DEE78045
:100890000D89828A83E493A3F608DFF9ECFAA9F0C4
:1008A000EDFB2289828A83ECFAE0A3C8C582C8CC1A
:1008B000C583CCF0A3C8C582C8CCC583CCDFEADE33
:1008C000E880DB89828A83E493A3F208DFF980CC95
:1008D00088F0EF60010E4E60C388F0ED2402B4048E
:1008E0000050B9F582EB2402B4040050AF23234535
:0608F00082239008507302
:1008F600BC000BBE0029EF8DF084FFADF022E4CCE6
:10090600F875F008EF2FFFEE33FEEC33FCEE9DECAE
:10091600984005FCEE9DFE0FD5F0E9E4CEFD22EDF4
:10092600F8F5F0EE8420D21CFEADF075F008EF2F3E
:10093600FFED33FD4007985006D5F0F222C398FD2F
:050946000FD5F0EA22CC
:00000001FF
